:100000000C9462000C948A000C948A000C948A0070
:100010000C948A000C948A000C948A000C948A0038
:100020000C948A000C948A000C948A000C948A0028
:100030000C948A000C948A000C948A000C948A0018
:100040000C945E020C948A000C94CE020C94A802CC
:100050000C948A000C948A000C948A000C948A00F8
:100060000C948A000C948A000000000023002600F3
:10007000290000000000240027002A0000000000E2
:10008000250028002B0004040404040404040202D4
:100090000202020203030303030301020408102007
:1000A0004080010204081020010204081020000012
:1000B0000008000201000003040700000000000027
:1000C0000000A10411241FBECFEFD8E0DEBFCDBFDA
:1000D00011E0A0E0B1E0E0EFF9E002C005900D9280
:1000E000AC33B107D9F721E0ACE3B1E001C01D9218
:1000F000A43EB207E1F710E0C2E6D0E004C02197C9
:10010000FE010E94F004C136D107C9F70E94000326
:100110000C94F6040C940000833081F028F48130B4
:1001200099F08230A9F008958730A9F08830C9F09D
:100130008430B1F4809180008F7D03C08091800075
:100140008F7780938000089584B58F7784BD08955C
:1001500084B58F7DFBCF8091B0008F778093B00006
:1001600008958091B0008F7DF9CF1F93CF93DF93D7
:10017000282F30E0F901E255FF4F8491F901E6564E
:10018000FF4FD491F901EA57FF4FC491CC23A9F056
:10019000162F81110E948C00EC2FF0E0EE0FFF1F54
:1001A000E458FF4FA591B4918FB7F894EC911111D9
:1001B00008C0D095DE23DC938FBFDF91CF911F91D4
:1001C0000895DE2BF8CFCF93DF9390E0FC01E65645
:1001D000FF4F24918A579F4FFC0184918823C9F0D7
:1001E00090E0880F991FFC01EE58FF4FA591B49144
:1001F000FC01E458FF4FC591D49161110DC09FB728
:10020000F8948C91209582238C93888128232883CD
:100210009FBFDF91CF910895623051F49FB7F8945A
:100220003C91822F809583238C93E8812E2BEFCFF6
:100230008FB7F894EC912E2B2C938FBFEACF3FB75A
:10024000F8948091430190914401A0914501B091AF
:10025000460126B5A89B05C02F3F19F00196A11DA8
:10026000B11D3FBFBA2FA92F982F8827BC01CD0100
:10027000620F711D811D911D42E0660F771F881F5F
:10028000991F4A95D1F70895AF92BF92CF92DF920E
:10029000EF92FF920F931F93CF93DF936C017B013B
:1002A0008B01040F151FEB015E01AE18BF08C017CC
:1002B000D10759F06991D601ED91FC910190F0813F
:1002C000E02DC6010995892B79F7C501DF91CF9102
:1002D0001F910F91FF90EF90DF90CF90BF90AF9064
:1002E0000895FC01538D448D252F30E0842F90E03C
:1002F000821B930B541710F0CF9608950197089521
:10030000FC01918D828D981761F0A28DAE0FBF2FE9
:10031000B11D5D968C91928D9F5F9F73928F90E03F
:1003200008958FEF9FEF0895FC01918D828D9817AE
:1003300031F0828DE80FF11D858D90E008958FEFEB
:100340009FEF0895FC01918D228D892F90E0805CB4
:100350009F4F821B91098F739927089587E491E03D
:100360000E94A20121E0892B09F420E0822F089548
:1003700080E090E0892B29F00E94AE0181110C945D
:1003800000000895FC01A48DA80FB92FB11DA35A38
:10039000BF4F2C91848D90E001968F739927848FA5
:1003A000A689B7892C93A089B1898C9183708064C8
:1003B0008C93938D848D981306C00288F389E02D69
:1003C00080818F7D80830895EF92FF920F931F931A
:1003D000CF93DF93EC0181E0888F9B8D8C8D9813F8
:1003E0001AC0E889F989808185FF15C09FB7F89404
:1003F000EE89FF896083E889F98980818370806450
:1004000080839FBF81E090E0DF91CF911F910F919A
:10041000FF90EF900895F62E0B8D10E00F5F1F4FA9
:100420000F731127E02E8C8D8E110CC00FB607FCB8
:10043000FACFE889F989808185FFF5CFCE010E9446
:10044000C201F1CFEB8DEC0FFD2FF11DE35AFF4FF1
:10045000F0829FB7F8940B8FEA89FB8980818062D4
:10046000CFCFCF93DF93EC01888D8823B9F0AA8991
:10047000BB89E889F9898C9185FD03C0808186FD5F
:100480000DC00FB607FCF7CF8C9185FFF2CF8081AE
:1004900085FFEDCFCE010E94C201E9CFDF91CF9160
:1004A0000895FC0101900020E9F73197AF01481B46
:1004B000590BBC0187E491E00C9444011F920F9208
:1004C0000FB60F9211242F933F938F939F93AF9367
:1004D000BF9380913F0190914001A0914101B09163
:1004E000420130913E0123E0230F2D3758F501964C
:1004F000A11DB11D20933E0180933F0190934001C7
:10050000A0934101B0934201809143019091440135
:10051000A0914501B09146010196A11DB11D8093A6
:10052000430190934401A0934501B0934601BF91CC
:10053000AF919F918F913F912F910F900FBE0F9090
:100540001F90189526E8230F0296A11DB11DD2CF4A
:100550001F920F920FB60F9211242F933F934F9338
:100560005F936F937F938F939F93AF93BF93EF931B
:10057000FF9387E491E00E94C201FF91EF91BF9148
:10058000AF919F918F917F916F915F914F913F912B
:100590002F910F900FBE0F901F9018951F920F92E2
:1005A0000FB60F9211242F938F939F93EF93FF9386
:1005B000E0915701F09158018081E0915D01F09147
:1005C0005E0182FD1BC09081809160018F5F8F73FF
:1005D00020916101821741F0E0916001F0E0E95B58
:1005E000FE4F958F80936001FF91EF919F918F91C6
:1005F0002F910F900FBE0F901F9018958081F4CF10
:10060000CF93DF93CDB7DEB7A1970FB6F894DEBFD7
:100610000FBECDBF789484B5826084BD84B58160FF
:1006200084BD85B5826085BD85B5816085BD8091BD
:100630006E00816080936E00109281008091810035
:10064000826080938100809181008160809381002D
:10065000809180008160809380008091B1008460EF
:100660008093B1008091B00081608093B000809150
:100670007A00846080937A0080917A00826080930F
:100680007A0080917A00816080937A0080917A006C
:10069000806880937A001092C100E0915701F09138
:1006A000580182E08083E0915301F091540110825F
:1006B000E0915501F09156018FEC808310925F011B
:1006C000E0915B01F0915C0186E08083E09159014B
:1006D000F0915A01808180618083E0915901F0910D
:1006E0005A01808188608083E0915901F0915A011C
:1006F000808180688083E0915901F0915A01808166
:100700008F7D80838EE191E00E94510283E291E02F
:100710000E94510202E111E0F801F0800E5F1F4FCC
:1007200061E08F2D0E94E30060E08F2D0E94B500F4
:10073000F1E00E311F0781F760E08EE00E94E300D8
:1007400062E088E00E94E30032EA232E30E0332E9C
:100750004AE0442E512C612C712CE6EBF0E08491A0
:10076000F1011491EEE8F0E004910111C4C010927F
:100770003D0110923C0180E480937C0080917A00DE
:10078000806480937A0080917A0086FDFCCFE090AF
:100790007800F090790086E291E00E9451024701D2
:1007A0000F2C000CAA08BB08B7FEB5C06DE287E4A9
:1007B00091E00E94E40122273327A9012819390971
:1007C0004A095B0919A28E010F5D1F4FCA01B901C9
:1007D000A30192010E94CE04605DF80162938F0133
:1007E000211531054105510589F70115110519F04C
:1007F000C8010E94510283E291E00E94510280915F
:100800003C0190913D018E159F0524F4F0923D012D
:10081000E0923C0180913C0190913D0110E000E0AC
:1008200084369105F4F001E010E0883C9105CCF0AD
:1008300002E010E08C32F1E09F079CF003E010E052
:10084000803921E092076CF004E010E0843FE1E0A1
:100850009E073CF005E010E08C31924014F006E079
:1008600010E092E1C92E91E0D92EF12CE12CF60195
:100870008081F2E0CF0ED11C61E0E016F1060CF0B1
:1008800060E00E94B5002FEFE21AF20A86E0E81657
:10089000F10469F70E941F014B015C0184E6C82E38
:1008A000D12CE12CF12C0E941F01681979098A09C9
:1008B0009B09683E734081059105A8F391E0C91A30
:1008C000D108E108F108E8EE8E0EE3E09E1EA11CBF
:1008D000B11CC114D104E104F10429F780E090E0D7
:1008E000892B09F43ACF0E94AE01882309F435CF51
:1008F0000E94000032CF81110E948C00E02FF0E0B6
:10090000EE0FFF1FE859FF4FA591B4918C9118236A
:1009100009F42DCF30CFA501940119A28E010F5DEE
:100920001F4FCA01B901A30192010E94CE04605D6C
:10093000F80162938F01211531054105510589F7B1
:1009400054CFE7E4F1E01382128288EE93E0A0E056
:10095000B0E084839583A683B78384E091E091839C
:10096000808385EC90E09587848784EC90E097877E
:10097000868780EC90E0918B808B81EC90E0938B6C
:10098000828B82EC90E0958B848B86EC90E0978B49
:10099000868B118E128E138E148E0895A1E21A2E5C
:1009A000AA1BBB1BFD010DC0AA1FBB1FEE1FFF1F13
:1009B000A217B307E407F50720F0A21BB30BE40B63
:1009C000F50B661F771F881F991F1A9469F76095AA
:1009D0007095809590959B01AC01BD01CF01089564
:1009E000EE0FFF1F0590F491E02D0994F894FFCFCE
:1009F00000000000E401440171013102A201800104
:100A00009401020003000400050006000700424FA5
:100A10004F54000D0A0052617720456E76656C6F69
:0C0A200070652056616C75653A2000007E
:00000001FF
